:020000040800F2
:10000000040101205D0B0008D90B00084718000807
:10001000D90B0008D90B0008D90B0008000000001C
:10002000000000000000000000000000D90B0008E4
:10003000D90B000800000000D90B0008D90B0008FC
:10004000D90B0008D90B0008D90B0008D90B000800
:10005000D90B0008D90B0008D90B0008D90B0008F0
:10006000D90B0008D90B0008D90B0008D90B0008E0
:10007000D90B0008D90B0008D90B0008D90B0008D0
:10008000D90B0008D90B0008D90B0008D90B0008C0
:10009000D90B0008D90B0008D90B0008D90B0008B0
:1000A000D90B0008D90B0008D90B0008D90B0008A0
:1000B000D90B0008D90B0008D90B0008D90B000890
:1000C000D90B0008D90B0008D90B0008D90B000880
:1000D000D90B0008D90B0008B92600082D27000805
:1000E000D90B0008D90B0008D90B0008D90B000860
:1000F000D90B0008D90B0008D90B0008D90B000850
:10010000D90B0008D90B0008D90B0008D90B00083F
:10011000D90B0008D90B0008D90B000841020008D0
:10012000D90B0008D90B0008D90B0008D90B00081F
:10013000D90B0008D90B0008D90B0008D90B00080F
:10014000D90B0008D90B0008D90B0008D90B0008FF
:10015000D90B0008D90B0008D90B0008D90B0008EF
:10016000D90B0008D90B0008D90B0008D90B0008DF
:10017000D90B0008D90B0008D90B0008D90B0008CF
:10018000D90B0008D90B000880B584B000AF4FF040
:1001900020004FF0010100F0EDFE4FF037033B73FC
:1001A0004FF000037B734FF00003BB734FF001036C
:1001B000FB7307F10C03184601F0E8FF4FF4A05061
:1001C000C4F2000002F054F84FF009033B804FF0F6
:1001D00053037B603B464FF4A050C4F20000194625
:1001E00002F062F94FF4A050C4F200004FF0010198
:1001F0004FF0010202F0F2F94FF4A050C4F20000F7
:100200004FF0010102F0CAF907F11007BD4680BDA9
:1002100080B483B000AF786040F21803C2F20003EC
:100220007A681A6000BF40F21803C2F200031B682C
:10023000002BF8D107F10C07BD4680BC704700BF0A
:10024000B0B483B000AF4FF4A053C4F200034FF634
:10025000FE721A824FF000037B609AE07B684FEADF
:10026000A303FB707B68DBB203F00303BB70F97878
:10027000B87840F22802C2F200020B464FEA43036C
:100280005B184FEA83035B181B1803F108034FEA5E
:100290008303D3185B68002B77D0FA78B87840F2E4
:1002A0002801C2F2000113464FEA43039B184FEAAC
:1002B00083039B181B1803F108034FEA8303CB1831
:1002C0005B6803F1FF3440F22801C2F200011346DB
:1002D0004FEA43039B184FEA83039B181B1803F153
:1002E00008034FEA8303CB185C6040F22801C2F296
:1002F000000113464FEA43039B184FEA83039B1800
:100300001B1803F108034FEA8303CB185B68002B2B
:100310003BD1F878B978FC78BA7840F22803C2F279
:1003200000034FF0340505FB04F41B199B1803F17F
:1003300008031A7940F22803C2F200034FF0340494
:1003400004FB00F01B185B1803F108031A70F8781F
:10035000B978FC78BA7840F22803C2F200034FF073
:10036000340505FB04F41B199B1803F108031A79E3
:1003700040F22803C2F200034FF0340404FB00F003
:100380001B185B1803F110031A707B6803F101035B
:100390007B607B680B2B7FF761AF40F21C03C2F2DE
:1003A00000031B88002B40F0AD8140F22803C2F20D
:1003B00000035B69002B1AD042F2FC73C0F6000305
:1003C0001B681A4640F22803C2F200031B7A13602E
:1003D00042F2FC73C0F600035B681A4640F2280341
:1003E000C2F200031B7A4FEA5303DBB2136040F200
:1003F0002803C2F200039B69002B1AD042F2FC735F
:10040000C0F600039B681A4640F22803C2F20003BC
:100410005B7A136042F2FC73C0F60003DB681A4695
:1004200040F22803C2F200035B7A4FEA5303DBB2C7
:10043000136040F22803C2F20003DB69002B1AD0DC
:1004400042F2FC73C0F600031B691A4640F228030F
:10045000C2F200039B7A136042F2FC73C0F6000301
:100460005B691A4640F22803C2F200039B7A4FEA06
:100470005303DBB2136040F22803C2F200031B6A8D
:10048000002B1AD042F2FC73C0F600039B691A4697
:1004900040F22803C2F20003DB7A136042F2FC73DD
:1004A000C0F60003DB691A4640F22803C2F20003DB
:1004B000DB7A4FEA5303DBB2136040F22803C2F247
:1004C00000039B6C002B1CD042F2FC73C0F60003AF
:1004D0001B6A1A4640F22803C2F2000393F83C302C
:1004E000136042F2FC73C0F600035B6A1A4640F2E6
:1004F0002803C2F2000393F83C304FEA5303DBB207
:10050000136040F22803C2F20003DB6C002B1CD006
:1005100042F2FC73C0F600039B6A1A4640F22803BD
:10052000C2F2000393F83D30136042F2FC73C0F650
:100530000003DB6A1A4640F22803C2F2000393F874
:100540003D304FEA5303DBB2136040F22803C2F29E
:1005500000031B6D002B1CD042F2FC73C0F600039D
:100560001B6B1A4640F22803C2F2000393F83E3098
:10057000136042F2FC73C0F600035B6B1A4640F254
:100580002803C2F2000393F83E304FEA5303DBB274
:10059000136040F22803C2F200035B6D002B1CD0F5
:1005A00042F2FC73C0F600039B6B1A4640F228032C
:1005B000C2F2000393F83F30136042F2FC73C0F6BE
:1005C0000003DB6B1A4640F22803C2F2000393F8E3
:1005D0003F304FEA5303DBB2136040F22803C2F20C
:1005E0000003DB6F002B1CD042F2FC73C0F600034B
:1005F0001B6C1A4640F22803C2F2000393F87030D5
:10060000136042F2FC73C0F600035B6C1A4640F2C2
:100610002803C2F2000393F870304FEA5303DBB2B1
:10062000136040F22803C2F20003D3F88030002B9D
:100630001CD042F2FC73C0F600039B6C1A4640F2D9
:100640002803C2F2000393F87130136042F2FC7386
:10065000C0F60003DB6C1A4640F22803C2F2000326
:1006600093F871304FEA5303DBB2136040F2280372
:10067000C2F20003D3F88430002B1CD042F2FC738A
:10068000C0F600031B6D1A4640F22803C2F20003B5
:1006900093F87230136042F2FC73C0F600035B6D96
:1006A0001A4640F22803C2F2000393F872304FEA70
:1006B0005303DBB2136040F22803C2F20003D3F805
:1006C0008830002B00F08A8142F2FC73C0F60003F0
:1006D0009B6D1A4640F22803C2F2000393F8733070
:1006E000136042F2FC73C0F60003DB6D1A4640F261
:1006F0002803C2F2000393F873304FEA5303DBB2CE
:1007000013606BE140F22803C2F200031A8840F242
:100710001C03C2F200031B8812B21BB29A420FD113
:1007200042F2FC73C0F600031B684FF000021A602F
:1007300042F2FC73C0F600035B684FF000021A60DF
:1007400040F22803C2F200035A8840F21C03C2F2AE
:1007500000031B8812B21BB29A420FD142F2FC7303
:10076000C0F600039B684FF000021A6042F2FC736F
:10077000C0F60003DB684FF000021A6040F2280365
:10078000C2F200039A8840F21C03C2F200031B88E5
:1007900012B21BB29A420FD142F2FC73C0F60003B0
:1007A0001B694FF000021A6042F2FC73C0F60003AE
:1007B0005B694FF000021A6040F22803C2F20003A6
:1007C000DA8840F21C03C2F200031B8812B21BB28B
:1007D0009A420FD142F2FC73C0F600039B694FF0BE
:1007E00000021A6042F2FC73C0F60003DB694FF0AE
:1007F00000021A6040F22803C2F200039A8E40F20F
:100800001C03C2F200031B8812B21BB29A420FD122
:1008100042F2FC73C0F600031B6A4FF000021A603C
:1008200042F2FC73C0F600035B6A4FF000021A60EC
:1008300040F22803C2F20003DA8E40F21C03C2F237
:1008400000031B8812B21BB29A420FD142F2FC7312
:10085000C0F600039B6A4FF000021A6042F2FC737C
:10086000C0F60003DB6A4FF000021A6040F2280372
:10087000C2F200031A8F40F21C03C2F200031B886D
:1008800012B21BB29A420FD142F2FC73C0F60003BF
:100890001B6B4FF000021A6042F2FC73C0F60003BB
:1008A0005B6B4FF000021A6040F22803C2F20003B3
:1008B0005A8F40F21C03C2F200031B8812B21BB213
:1008C0009A420FD142F2FC73C0F600039B6B4FF0CB
:1008D00000021A6042F2FC73C0F60003DB6B4FF0BB
:1008E00000021A6040F22803C2F20003B3F8682045
:1008F00040F21C03C2F200031B8812B21BB29A42E0
:100900000FD142F2FC73C0F600031B6C4FF00002E3
:100910001A6042F2FC73C0F600035B6C4FF00002F9
:100920001A6040F22803C2F20003B3F86A2040F2D2
:100930001C03C2F200031B8812B21BB29A420FD1F1
:1009400042F2FC73C0F600039B6C4FF000021A6089
:1009500042F2FC73C0F60003DB6C4FF000021A6039
:1009600040F22803C2F20003B3F86C2040F21C03EB
:10097000C2F200031B8812B21BB29A420FD142F29C
:10098000FC73C0F600031B6D4FF000021A6042F2C8
:10099000FC73C0F600035B6D4FF000021A6040F27A
:1009A0002803C2F20003B3F86E2040F21C03C2F227
:1009B00000031B8812B21BB29A420FD142F2FC73A1
:1009C000C0F600039B6D4FF000021A6042F2FC7308
:1009D000C0F60003DB6D4FF000021A6040F21C030A
:1009E000C2F200031B8803F101039AB240F21C0318
:1009F000C2F200031A8040F21C03C2F200031B88FB
:100A00001BB2642B25D140F21403C2F200031B6811
:100A100003F1010240F21403C2F200031A6040F233
:100A20001803C2F200031B68002B0BD040F218031E
:100A3000C2F200031B6803F1FF3240F21803C2F256
:100A400000031A6040F21C03C2F200034FF00002E0
:100A50001A8048F21C23C4F240231B68DAB248F221
:100A60002023C4F240231B68DBB24FEA4303DBB20E
:100A70001343DBB23B704FF40873C4F241231B688D
:100A8000DAB24FF40973C4F241231B68DBB24FEAB8
:100A90004303DBB21343DBB27B7040F22003C2F2AC
:100AA00000031B784FEA8303DAB23B78DBB21343CF
:100AB000DBB2DAB240F22003C2F200031A7040F255
:100AC0002003C2F200035B784FEA8303DAB27B783B
:100AD000DBB21343DBB2DAB240F22003C2F200030E
:100AE0005A7040F22003C2F200031B7803F00F0299
:100AF00042F2A073C0F6000353F822309AB240F2DB
:100B00002403C2F200031B889BB2D3189BB29AB293
:100B100040F22403C2F200031A8040F22003C2F222
:100B200000035B7803F00F0242F2A073C0F60003EB
:100B300053F822309AB240F22603C2F200031B8817
:100B40009BB2D3189BB29AB240F22603C2F20003C2
:100B50001A8007F10C07BD46B0BC704780B582B063
:100B600000AF42F6CC33C0F600037B6040F20003D6
:100B7000C2F200033B600BE07B681A683B681A60B6
:100B80003B6803F104033B607B6803F104037B6073
:100B90003A6840F21403C2F200039A42ECD30C48C4
:100BA0000C494FF000028842B8BF40F8042BFFF612
:100BB000FAAF4FF46D43CEF200034FF000629A603B
:100BC00000F04EFE00F054FA07F10807BD4680BD64
:100BD000140000200801002080B400AFFEE700BF31
:100BE00080B483B000AF78607B689B889BB24FEA8B
:100BF000C3534FEAD3539BB2184607F10C07BD46C7
:100C000080BC704780B487B000AF78600B467B80B3
:100C10004FF00003FB604FF000037B614FF00003D7
:100C2000BB604FF00003FB747B88DBB24FEA5313C9
:100C3000DBB2BB607B8803F01F037B617B694FF0F5
:100C4000010202FA03F37B61BB68012B06D17B68CA
:100C50009B899BB27A6913407B610FE0BB68022BD2
:100C600006D17B681B8A9BB27A6913407B6105E0E1
:100C70007B689B8A9BB27A6913407B617B884FEAD1
:100C800013239BB2FB60FB684FF0010202FA03F3EF
:100C9000FB607B681B889BB2FA681340FB607B6932
:100CA000002B06D0FB68002B03D04FF00103FB7430
:100CB00002E04FF00003FB74FB7C184607F11C07B1
:100CC000BD4680BC704700BF80B586B000AF4FF016
:100CD00003004FF0010100F023F94FF001004FF045
:100CE000010100F047F94FF002033B754FF000039C
:100CF000FB754FF002037B754FF400433B6107F136
:100D000010034FF00000C4F20200194600F09AFCF4
:100D10004FF008033B6107F110034FF48060C4F209
:100D20000200194600F08EFC4FF00000C4F20200F1
:100D30004FF00F014FF0010200F026FD4FF48060EC
:100D4000C4F202004FF003014FF0010200F01CFD5D
:100D50004FF0804001F08CFA4FF6FF73BB604FF00C
:100D60000003BB804FF00003BB814FF00003FB800A
:100D700007F104034FF08040194601F095FB4FF056
:100D800080404FF003014FF000024FF0000301F0EC
:100D900049FC4FF080404FF0010101F0FFFB07F1EB
:100DA0001807BD4680BD00BF80B586B000AF4FF0CC
:100DB00002004FF0010100F0B3F84FF002004FF0D5
:100DC000010100F0D7F84FF002033B754FF000032C
:100DD000FB754FF002037B754FF030033B6107F169
:100DE00010034FF48060C4F20200194600F02AFCA0
:100DF0004FF48060C4F202004FF004014FF0020291
:100E000000F0C2FC4FF48060C4F202004FF0050114
:100E10004FF0020200F0B8FC4FF48060C4F2000012
:100E200001F026FA4FF6FF73BB604FF00003BB8062
:100E30004FF00003BB814FF00003FB8007F1040378
:100E40004FF48060C4F20000194601F02DFB4FF40E
:100E50008060C4F200004FF003014FF000024FF039
:100E6000000301F0DFFB4FF48060C4F200004FF09C
:100E7000010101F093FB07F11807BD4680BD00BFDB
:100E800080B582B000AF4FF002004FF0010100F0DA
:100E900047F84FF000033B714FF00003FB714FF038
:100EA00002037B714FF4C0733B603B464FF480609C
:100EB000C4F20200194600F0C5FB40F22403C2F25E
:100EC00000034FF000021A8007F10807BD4680BDFD
:100ED00080B582B000AF4FF004004FF0010100F088
:100EE0001FF84FF000033B714FF00003FB714FF010
:100EF00002037B714FF440733B603B464FF400604C
:100F0000C4F20200194600F09DFB40F22603C2F233
:100F100000034FF000021A8007F10807BD4680BDAC
:100F200080B483B000AF78600B46FB70FB78002B79
:100F30000CD04FF46053C4F202034FF46052C4F279
:100F40000202116B7A680A431A630DE04FF4605392
:100F5000C4F202034FF46052C4F20202116B7A68C9
:100F60006FEA02020A401A6307F10C07BD4680BC13
:100F7000704700BF80B483B000AF78600B46FB7051
:100F8000FB78002B0CD04FF46053C4F202034FF4F3
:100F90006052C4F20202116C7A680A431A640DE0CE
:100FA0004FF46053C4F202034FF46052C4F20202E1
:100FB000116C7A686FEA02020A401A6407F10C07A2
:100FC000BD4680BC704700BF80B483B000AF78607E
:100FD0000B46FB70FB78002B0CD04FF46053C4F22F
:100FE00002034FF46052C4F20202116A7A680A43A3
:100FF0001A620DE04FF46053C4F202034FF46052E2
:10100000C4F20202116A7A686FEA02020A401A62A6
:1010100007F10C07BD4680BC704700BF80B483B0A9
:1010200000AF78600B46FB70FB78002B0CD04FF4C0
:101030006053C4F202034FF46052C4F20202516AD8
:101040007A680A435A620DE04FF46053C4F2020317
:101050004FF46052C4F20202516A7A686FEA0202E7
:101060000A405A6207F10C07BD4680BC704700BFBA
:1010700080B586B000AF07F104034FF000021A609C
:1010800003F104034FF000021A6003F104034FF070
:1010900000021A6003F104034FF000021A6003F12A
:1010A000040300F027FCFFF76FF840F20413C2F2CC
:1010B000000341F61572C0F600021A6000F0F6FD5A
:1010C00000F0E6FE4FF000004FF0000100F00AFFD4
:1010D000FFF7FAFDFFF768FEFFF7D2FEFFF7F8FE15
:1010E00042F2E070C0F6000000F09AFA4FF0000003
:1010F0004FF0010100F0F6FE4FF000037B6177E056
:101100007B694FEA830307F11801CB1853F8142CBD
:101110007B69002B05D14FF080435B6A9BB21BB209
:1011200020E07B69012B07D14FF48063C4F20003F8
:101130005B6A9BB21BB215E07B69022B06D140F2C1
:101140002403C2F200031B881BB20BE07B69032B54
:1011500006D140F22603C2F200031B881BB201E055
:101160004FF00003D2187B694FEA830307F118019F
:10117000CB1843F8142C7B69002B05D14FF080432A
:101180004FF000025A621FE07B69012B07D14FF438
:101190008063C4F200034FF000025A6214E07B69DE
:1011A000022B07D140F22403C2F200034FF00002E9
:1011B0001A8009E07B69032B06D140F22603C2F2B4
:1011C00000034FF000021A807B694FEA830307F1A6
:1011D0001802D31853F8143C42F2F070C0F6000025
:1011E00079691A4600F01CFA7B6903F101037B61FF
:1011F0007B69032B84DD79E780B582B000AF0346BD
:10120000FB71FB790A2B03D14FF00D00FFF7F4FFC0
:1012100040F2C403C2F200031B68002B0ED040F260
:10122000C403C2F200031B68FA791A7003F10102C9
:1012300040F2C403C2F200031A600EE040F204134D
:10124000C2F200031B68002B07D040F20413C2F265
:1012500000031B68FA791046984707F10807BD4656
:1012600080BD00BF80B582B000AF786008E07B68C9
:101270001B787A6802F101027A601846FFF7BCFF1A
:101280007B681B78002BF2D107F10807BD4680BDB3
:1012900080B58EB000AF786039607B681B78FB77D3
:1012A0007B6803F101037B60FB7F002B00F0B181C1
:1012B000FB7F252B04D0FB7F1846FFF79DFFA7E19E
:1012C0004FF000037B627B681B78FB777B6803F140
:1012D00001037B60FB7F302B0AD14FF001037B625F
:1012E0007B681B78FB777B6803F101037B600CE074
:1012F000FB7F2D2B09D14FF002037B627B681B78AB
:10130000FB777B6803F101037B604FF00003BB6256
:1013100013E0BA6A13464FEA83039B184FEA43036C
:101320001A46FB7FD318A3F13003BB627B681B789E
:10133000FB777B6803F101037B60FB7F2F2B02D9D6
:10134000FB7F392BE5D9FB7F6C2B02D0FB7F4C2B2D
:101350000AD17B6A43F004037B627B681B78FB77CE
:101360007B6803F101037B60FB7F002B00F053815E
:10137000FB7FBB77BB7F602B03D9BB7FA3F120032F
:10138000BB77BB7FA3F14203162B00F28C8001A236
:1013900052F823F08714000873140008971400080B
:1013A000A7140008A7140008A7140008A714000831
:1013B000A7140008A7140008A7140008A714000821
:1013C000A7140008A71400088F140008A714000829
:1013D000A7140008A7140008F1130008A7140008B8
:1013E00097140008A7140008A71400089F14000809
:1013F0003B6803F104023A601B68BB614FF00003D5
:10140000FB6203E0FB6A03F10103FB62BA69FB6A5A
:10141000D3181B78002BF5D103E04FF02000FFF725
:10142000EBFE7B6A03F00203002B0CD1FA6ABB6A65
:101430009A422CBF00230123DBB2FA6A02F10102B7
:10144000FA62002BE9D1B869FFF70CFF03E04FF017
:101450002000FFF7D1FEFA6ABB6A9A422CBF002334
:101460000123DBB2FA6A02F10102FA62002BEED12B
:10147000CEE03B6803F104023A601B68DBB2184619
:10148000FFF7BAFEC4E04FF002037B6310E04FF0B9
:1014900008037B630CE04FF00A037B6308E04FF026
:1014A00010037B6304E0FB7F1846FFF7A5FEAFE067
:1014B0007B6A03F00403002B05D03B6803F10402B0
:1014C0003A601B680DE0BB7F442B05D13B6803F1FC
:1014D00004023A601B6804E03B6803F104023A60CE
:1014E0001B683B62BB7F442B0AD13B6A002B07DAA7
:1014F0003B6AC3F100033B627B6A43F008037B62F3
:101500004FF000033B633B6A7A6BB3FBF2F2796BFB
:1015100001FB02F29B1ABB773A6A7B6BB2FBF3F3D7
:101520003B62BB7F092B0AD9FB7F782B02D14FF09E
:10153000270301E04FF00703BA7F9B18BB77BB7FFF
:1015400003F13003DAB207F108013B6BCB181A70D4
:101550003B6B03F101033B633B6A002B02D03B6B07
:101560000F2BD0D97B6A03F00803002B0AD007F1B8
:1015700008023B6BD3184FF02D021A703B6B03F13E
:1015800001033B633B6BFB627B6A03F00103002BAF
:1015900002D04FF0300301E04FF02003BB7703E0AF
:1015A000BB7F1846FFF728FE7B6A03F00203002B7F
:1015B0000CD1FA6ABB6A9A422CBF00230123DBB22A
:1015C000FA6A02F10102FA62002BE9D13B6B03F1E6
:1015D000FF333B6307F108023B6BD3181B781846B7
:1015E000FFF70AFE3B6B002BF0D103E04FF0200029
:1015F000FFF702FEFA6ABB6A9A422CBF002301235E
:10160000DBB2FA6A02F10102FA62002BEED144E683
:1016100043E600BF00E000BF07F13807BD4680BDCC
:101620000FB480B582B000AF07F114037B60386956
:101630007968FFF72DFE07F10807BD46BDE8804039
:1016400004B0704780B487B000AF786039604FF065
:1016500000037B614FF000033B614FF00003FB6030
:101660004FF000037B6186E07B694FF0010202FAD4
:1016700003F33B613B681A683B691340FB60FA68FF
:101680003B699A4273D17B681A687B694FEA4303CE
:101690004FF0030101FA03F36FEA03031A407B687A
:1016A0001A607B681A683B681B7919467B694FEAA8
:1016B000430301FA03F31A437B681A603B681B7902
:1016C000012B03D03B681B79022B34D17B689A68CD
:1016D0007B694FEA43034FF0030101FA03F36FEA1A
:1016E00003031A407B689A607B689A683B685B7961
:1016F00019467B694FEA430301FA03F31A437B68F7
:101700009A607B685A687B699BB24FF0010101FACD
:1017100003F36FEA03031A407B685A607B685A68D8
:101720003B689B7919467B699BB201FA03F39BB234
:101730001A437B685A607B68DA687B699BB24FEA20
:1017400043034FF0030101FA03F36FEA03031A4066
:101750007B68DA607B68DA683B68DB7919467B690D
:101760004FEA430301FA03F31A437B68DA607B69AB
:1017700003F101037B617B690F2B7FF675AF07F1E6
:101780001C07BD4680BC704780B485B000AF786050
:1017900013460A467A807B704FF00003FB604FF0DF
:1017A0000003BB607A787B8803F007034FEA83036A
:1017B00002FA03F3FB607B884FEAD3039BB21A461D
:1017C0007B884FEAD3039BB219467B6801F108017D
:1017D00053F821107B8803F007034FEA83034FF08F
:1017E0000F0000FA03F36FEA030319407B6802F16C
:1017F000080243F822107B884FEAD3039BB21A46B3
:101800007B6802F1080253F82220FB681343BB6097
:101810007B884FEAD3039BB21A467B6802F1080229
:10182000B96843F8221007F11407BD4680BC704721
:10183000ABBE00F002B800207047002A00F0018023
:1018400010600120704706980188044A914240F0D8
:101850000380043006907047FEE70000ABBE000036
:1018600080B500AF4FF46053C4F202034FF46052EE
:10187000C4F20202126842F001021A604FF460538F
:10188000C4F202034FF000029A604FF46053C4F2B6
:1018900002034FF46052C4F20202126822F0847212
:1018A00022F480321A604FF46053C4F2020343F210
:1018B0001002C2F200425A604FF46053C4F20203B5
:1018C0004FF46052C4F20202126822F480221A60BD
:1018D0004FF46053C4F202034FF00002DA6000F0EC
:1018E000C1F84FF46D43CEF200034FF000629A60EE
:1018F00080BD00BF80B487B000AF4FF000033B61F4
:101900004FF000037B614FF00203FB604FF00003D8
:10191000BB604FF002037B604FF46053C4F20203DC
:101920009B6803F00C033B613B69042B0DD0082B33
:1019300015D0002B69D140F20003C2F200034FF42E
:101940001052C0F2F4021A6069E040F20003C2F2E1
:1019500000034FF49052C0F27A021A605FE04FF435
:101960006053C4F202035B6803F480034FEA9353AD
:10197000BB604FF46053C4F202035B6803F03F03A3
:101980007B60BB68002B14D04FF49053C0F27A03F5
:101990007A68B3FBF2F24FF46053C4F20203596861
:1019A00047F6C0730B404FEA931303FB02F37B61CE
:1019B00013E04FF41053C0F2F4037A68B3FBF2F271
:1019C0004FF46053C4F20203596847F6C0730B40EA
:1019D0004FEA931303FB02F37B614FF46053C4F2AD
:1019E00002035B6803F440334FEA134303F101033E
:1019F0004FEA4303FB607A69FB68B2FBF3F240F203
:101A00000003C2F200031A6009E040F20003C2F2D0
:101A100000034FF41052C0F2F4021A6000BF4FF4FA
:101A20006053C4F202039B6803F0F0034FEA131201
:101A300040F20403C2F200039B5CDBB23B6140F264
:101A40000003C2F200031A683B6922FA03F240F273
:101A50000003C2F200031A6007F11C07BD4680BCF8
:101A6000704700BF80B483B000AF4FF000037B60CD
:101A70004FF000033B604FF46053C4F202034FF495
:101A80006052C4F20202126842F480321A604FF4CB
:101A90006053C4F202031B6803F400333B607B68AD
:101AA00003F101037B603B68002B03D17B68B3F536
:101AB000A06FECD14FF46053C4F202031B6803F42F
:101AC0000033002B03D04FF001033B6002E04FF0E6
:101AD00000033B603B68012B40F082804FF4605371
:101AE000C4F202034FF46052C4F20202126C42F0DC
:101AF00080521A644FF4E043C4F200034FF4E04212
:101B0000C4F20002126842F480421A604FF460533B
:101B1000C4F202034FF46052C4F2020292689A6067
:101B20004FF46053C4F202034FF46052C4F2020255
:101B3000926842F400429A604FF46053C4F2020388
:101B40004FF46052C4F20202926842F4A0529A60CA
:101B50004FF46053C4F2020342F60422C0F2407212
:101B60005A604FF46053C4F202034FF46052C4F25F
:101B70000202126842F080721A6000BF4FF4605394
:101B8000C4F202031B6803F00073002BF6D04FF47D
:101B90007053C4F2020340F205721A604FF46053AE
:101BA000C4F202034FF46052C4F20202926822F0BF
:101BB00003029A604FF46053C4F202034FF4605280
:101BC000C4F20202926842F002029A6000BF4FF42F
:101BD0006053C4F202039B6803F00C03082BF6D198
:101BE00007F10C07BD4680BC704700BF80B582B0CE
:101BF00000AF0346FB714FF48063C4F202034FF45D
:101C000080525A834FF46053C4F20003FA7992B2BF
:101C10009A8100BF4FF46050C4F200004FF00201FF
:101C200000F094FA0346002BF4D000BF4FF460504C
:101C3000C4F200004FF0800100F088FA0346002B48
:101C4000F4D107F10807BD4680BD00BF80B582B062
:101C500000AF0346FB714FF48063C4F202034FF4FC
:101C600080521A834FF46053C4F20003FA7992B29F
:101C70009A8100BF4FF46050C4F200004FF002019F
:101C800000F064FA0346002BF4D000BF4FF460501C
:101C9000C4F200004FF0800100F058FA0346002B18
:101CA000F4D107F10807BD4680BD00BF80B588B0FC
:101CB00000AF4FF002004FF00101FFF731F94FF490
:101CC00080404FF00101FFF755F94FF4C0537B619D
:101CD0004FF001033B764FF003037B764FF0000398
:101CE000BB764FF00003FB7607F114034FF48060DE
:101CF000C4F202001946FFF7A5FC4FF48063C4F25A
:101D000002034FF4C0525A834FF420437B614FF0DB
:101D100002033B764FF003037B764FF00003BB7664
:101D20004FF00103FB7607F114034FF48060C4F217
:101D300002001946FFF786FC4FF48060C4F20200EF
:101D40004FF00D014FF00502FFF71EFD4FF48060CC
:101D5000C4F202004FF00F014FF00502FFF714FD2F
:101D60003B46184600F0A4F94FF440433B804FF443
:101D700082737B804FF00003BB804FF00203FB8037
:101D80004FF001033B814FF400737B814FF0000360
:101D9000BB814FF00003FB813B464FF46050C4F21F
:101DA0000000194600F040F94FF46050C4F2000002
:101DB0004FF0010100F0AAF94FF48063C4F202036E
:101DC0004FF400621A834FF03200FEF721FA4FF40D
:101DD0008063C4F202034FF400625A834FF0320072
:101DE000FEF716FA4FF48063C4F202034FF4006268
:101DF0001A834FF03200FEF70BFA4FF00003FB613D
:101E00000DE042F6BC33C0F60003FA699B181B785C
:101E10001846FFF7EBFEFB6903F10103FB61FB6969
:101E20000D2BEED907F12007BD4680BD80B584B0EB
:101E300000AF786039603B68002B01DA03F10703DB
:101E40004FEAE303FB737B6803F11E037B607B684F
:101E500003F0F0034FEA2313BB737B68DBB203F09C
:101E60000F037B73FB7BA3F15003DBB21846FFF734
:101E7000BDFEBB7B03F11003DBB21846FFF7B6FED5
:101E80007B7B1846FFF7B2FE07F11007BD4680BD09
:101E900080B582B000AF4FF00003FB711AE0FB7910
:101EA0004FEAC3034FF000001946FFF7BFFF4FF0A2
:101EB0000003BB7107E04FF00000FFF7C7FEBB79DE
:101EC00003F10103BB71BB79652BF4D9FB7903F1F5
:101ED0000103FB71FB79072BE1D907F10807BD4628
:101EE00080BD00BF80B483B000AF786039607B688C
:101EF0009AB240F2C803C2F200031A803B689AB259
:101F000040F2CA03C2F200031A8007F10C07BD4673
:101F100080BC704780B584B000AF0346FB71FB798D
:101F20000A2B1DD140F2CA03C2F200031B8803F141
:101F300001039AB240F2CA03C2F200031A8040F2CF
:101F4000CA03C2F200031A884FF6FF739A4266D1A1
:101F500040F2CA03C2F200034FF000021A805EE0B2
:101F6000FB790D2B07D140F2C803C2F200034FF0FA
:101F700000021A8054E0FA7913464FEA43039B1893
:101F80004FEA4303BB6040F2C803C2F200031B8860
:101F90001A4613464FEA43039B184FEA43031A4677
:101FA00040F2CA03C2F200031B884FEAC303104683
:101FB0001946FFF73BFF4FF00003FB600EE0BA68E5
:101FC000FB68D21842F6BC03C0F600039B5C1846BF
:101FD000FFF73CFEFB6803F10103FB60FB68052B88
:101FE000EDDD40F2C803C2F200031B8803F10103D8
:101FF0009AB240F2C803C2F200031A8040F2C8034A
:10200000C2F200031A884FF6FF739A4208D140F2D9
:10201000C803C2F200034FF000021A8000E000BFC4
:1020200007F11007BD4680BD80B485B000AF786071
:1020300039604FF00003FB817B681B88FB81FB89C3
:1020400003F44153FB813B681A883B685B88134368
:102050009AB23B689B8813439AB23B68DB88134370
:102060009AB23B681B8913439AB23B685B8913435E
:102070009AB23B689B8913439AB23B68DB8913434E
:102080009AB2FB891343FB817B68FA891A807B68CB
:102090009B8B9BB223F400639AB27B689A833B6864
:1020A0001A8A7B681A8207F11407BD4680BC704704
:1020B00080B483B000AF78607B684FF000021A8074
:1020C0007B684FF000025A807B684FF000029A80D4
:1020D0007B684FF00002DA807B684FF000021A81C3
:1020E0007B684FF000025A817B684FF000029A81B2
:1020F0007B684FF00002DA817B684FF007021A829A
:1021000007F10C07BD4680BC704700BF80B483B0A8
:1021100000AF78600B46FB70FB78002B08D07B6823
:102120001B889BB243F040039AB27B681A8007E099
:102130007B681B889BB223F040039AB27B681A80AD
:1021400007F10C07BD4680BC704700BF80B485B066
:1021500000AF78600B467B804FF00003FB737B6819
:102160001B899AB27B8813409BB2002B03D04FF09F
:102170000103FB7302E04FF00003FB73FB7B184687
:1021800007F11407BD4680BC704700BF80B485B01E
:1021900000AF78604FF00003FB734FF00003BB7398
:1021A0004FF00F037B737B68DB78002B45D04FF437
:1021B0006D43CEF20003DB686FEA030303F4E063D0
:1021C0004FEA1323FB73FB7BC3F10403BB737A7BDE
:1021D000FB7B42FA03F37B737B685B781A46BB7B1D
:1021E00002FA03F3FB737B689A787B7B1340DAB2C5
:1021F000FB7B1343FB73FB7B4FEA0313FB734FF42F
:102200006143CEF200037A6812789B18FA7B83F858
:1022100000234FF46143CEF200037A6812784FEA4C
:102220005212D2B27968097801F01F014FF0010013
:1022300000FA01F143F8221014E04FF46143CEF2AA
:1022400000037A6812784FEA5212D2B2796809789C
:1022500001F01F014FF0010000FA01F102F120022C
:1022600043F8221007F11407BD4680BC704700BF39
:1022700080B582B000AF78607A684FF00003C4F296
:1022800001039A420CD14FF001004FF00101FEF71B
:10229000C5FE4FF001004FF00001FEF7BFFEFFE06A
:1022A0007B68B3F1804F0CD14FF001004FF001017A
:1022B000FEF78AFE4FF001004FF00001FEF784FEAA
:1022C000EEE07A684FF48063C4F200039A420CD1C6
:1022D0004FF002004FF00101FEF776FE4FF00200D2
:1022E0004FF00001FEF770FEDAE07A684FF4006309
:1022F000C4F200039A420CD14FF004004FF00101E8
:10230000FEF762FE4FF004004FF00001FEF75CFEA6
:10231000C6E07A684FF44063C4F200039A420CD1DD
:102320004FF008004FF00101FEF74EFE4FF008009D
:102330004FF00001FEF748FEB2E07A684FF4805398
:10234000C4F200039A420CD14FF010004FF001018B
:10235000FEF73AFE4FF010004FF00001FEF734FE9A
:102360009EE07A684FF4A053C4F200039A420CD165
:102370004FF020004FF00101FEF726FE4FF0200045
:102380004FF00001FEF720FE8AE07A684FF4806388
:10239000C4F201039A420CD14FF002004FF0010148
:1023A000FEF73CFE4FF002004FF00001FEF736FE54
:1023B00076E07A684FF48043C4F201039A420CD16C
:1023C0004FF480304FF00101FEF728FE4FF48030CB
:1023D0004FF00001FEF722FE62E07A684FF4884376
:1023E000C4F201039A420CD14FF400304FF00101C6
:1023F000FEF714FE4FF400304FF00001FEF70EFE22
:102400004EE07A684FF49043C4F201039A420CD133
:102410004FF480204FF00101FEF700FE4FF48020C2
:102420004FF00001FEF7FAFD3AE07A684FF4C0532E
:10243000C4F200039A420CD14FF040004FF001016A
:10244000FEF7C2FD4FF040004FF00001FEF7BCFD6B
:1024500026E07A684FF4E053C4F200039A420CD1AC
:102460004FF080004FF00101FEF7AEFD4FF080000D
:102470004FF00001FEF7A8FD12E07A684FF4005318
:10248000C4F200039A420BD14FF480704FF0010167
:10249000FEF79AFD4FF480704FF00001FEF794FDB7
:1024A00007F10807BD4680BD80B485B000AF7860F5
:1024B00039604FF00003FB817B681B88FB817A68E1
:1024C0004FF00003C4F201039A421FD07A684FF420
:1024D0008063C4F201039A4218D07B68B3F1804F45
:1024E00014D07A684FF48063C4F200039A420DD08E
:1024F0007A684FF40063C4F200039A4206D07A6807
:102500004FF44063C4F200039A4208D1FB8923F0E0
:102510007003FB813B685A88FB891343FB817A680F
:102520004FF48053C4F200039A420FD07A684FF4FC
:10253000A053C4F200039A4208D0FB8923F44073ED
:10254000FB813B681A89FB891343FB817B68FA890D
:102550001A803B685A687B68DA623B681A887B6835
:102560001A857A684FF00003C4F201039A4206D03C
:102570007A684FF48063C4F201039A4204D13B6845
:102580009B7A1A467B681A867B684FF001029A8212
:1025900007F11407BD4680BC704700BF80B483B00C
:1025A00000AF78600B46FB70FB78002B08D07B688F
:1025B0001B889BB243F001039AB27B681A8007E044
:1025C0007B681B889BB223F001039AB27B681A8058
:1025D00007F10C07BD4680BC704700BF80B483B0D4
:1025E00000AF786013460A467A807B707B78002BB8
:1025F00008D07B689B899AB27B8813439AB27B6828
:102600009A810AE07B689B899AB27B886FEA030310
:102610009BB213409AB27B689A8107F10C07BD46C2
:1026200080BC704780B487B000AFF86079813A8190
:10263000FB804FF00003FB824FF00003BB824FF0A2
:1026400000037B82FB681B89FB82FB681B8BBB82C0
:10265000FB681B8C7B82FB8A23F00703FB82FA8AD0
:102660007B891343FB82BB8A23F4407323F003036B
:10267000BB82BB8A43F4807343F00103BB827B8A35
:1026800023F022037B82FB884FEA03139AB23B8933
:1026900013439AB27B8A13437B82FB68FA8A1A81BE
:1026A000FB68BA8A1A83FB687A8A1A8407F11C07C6
:1026B000BD4680BC704700BF98B500AF4FF488405E
:1026C000C4F2000040F22551FEF79CFA0346012BAC
:1026D0002BD140F2CC03C2F200031C684FF48840B7
:1026E000C4F20000FEF77CFA0346DAB240F2DC03E3
:1026F000C2F200031A5540F2CC03C2F200031B6879
:1027000003F1010240F2CC03C2F200031A6040F26E
:10271000CC03C2F200031B68102B06D140F2CC039D
:10272000C2F200034FF000021A6098BD98B500AFE6
:102730004FF49040C4F2000040F22551FEF762FAD7
:102740000346012B2BD140F2D403C2F200031C68D4
:102750004FF49040C4F20000FEF742FA0346DAB2AA
:1027600040F2EC03C2F200031A5540F2D403C2F265
:1027700000031B6803F1010240F2D403C2F200031C
:102780001A6040F2D403C2F200031B68102B06D17A
:1027900040F2D403C2F200034FF000021A6098BD69
:1027A0000000000001000000FFFFFFFF000000002C
:1027B000FFFFFFFF0000000000000000010000001C
:1027C000010000000000000000000000FFFFFFFF0C
:1027D00000000000FFFFFFFF0100000000000000FC
:1027E0005B53616D706C65204E6F2E365D0A000084
:1027F000454E4325643A2536640A0000A002424251
:10280000A4024242A8024242AC024242B002424208
:10281000B4024242B8024242BC0242428C8241426D
:102820009C824142A8824142AC824142B0824142F4
:10283000B4824142B8824142BC8241429802414244
:10284000AC024142B4024142B8024142BC024142A0
:102850008082414284824142888241422002424237
:1028600024024242280242422C02424230024242A8
:1028700034024242380242423C0242420C8241420D
:102880001C824142288241422C8241423082414294
:1028900034824142388241423C82414218024142E4
:1028A0002C02414234024142380241423C02414240
:1028B0000082414204824142088241420F020EF0EE
:1028C00080F017151DF820F817151DA040A01F1542
:1028D00015A040A01F151508F8081F15153828F871
:1028E0001E051EF840A01F141CF880801F141CB881
:1028F000A8E81F041F08F8081F1010F828280F1058
:102900000F08F8081F0505F828281F1111F81008EE
:1029100017151DF888F817151D00F8001C141FF86E
:1029200080801C141F00F8001C141FE8A8B81C1499
:102930001FA8A8F81C141F6050F80F020EF840A042
:1029400017151D18E0181F1515F8A0E0487E49411D
:10295000420015167C161500143E5555550000070B
:10296000050700007F070808070048487E48480020
:1029700004027F02040010207F20100000000000ED
:10298000000000004F000000000700070000147F57
:10299000147F1400242A7F2A120023130864620083
:1029A000364955225000000503000000001C22415A
:1029B00000000041221C000014083E081400080812
:1029C0003E08080000503000000008080808080011
:1029D0000060600000002010080402003E514945DC
:1029E0003E0000427F4000004261514946002141C3
:1029F000454B31001814127F10002745454539001A
:102A00003C4A4949300001710905030036494949EA
:102A10003600064949291E000036360000000056DF
:102A2000360000000814224100001414141414008D
:102A3000004122140800020151090600324979417F
:102A40003E007E1111117E007F49494936003E410A
:102A5000414122007F4141221C007F4949494100F8
:102A60007F09090901003E4149497A007F080808A9
:102A70007F0000417F4100002040413F01007F086E
:102A8000142241007F40404040007F020C027F0042
:102A90007F0408107F003E4141413E007F09090943
:102AA00006003E4151215E007F0919294600464932
:102AB0004949310001017F0101003F4040403F0092
:102AC0001F2040201F003F4038403F00631408147F
:102AD0006300070870080700615149454300007F03
:102AE000414100000204081020000041417F000025
:102AF0000402010204004040404040000001020482
:102B000000002054545478007F484848300038442E
:102B100044444400304848487F003C4A4A4A4C00FC
:102B200000087E090200485454543C007F080808FD
:102B3000700000007A0000002040403D0000007F4F
:102B40001028440000417F4000007C0438047C00D1
:102B50007C08040478003844444438007C1414147D
:102B60000800081414147C007C080404080048546D
:102B70005454240004043F4424003C4040403C00A2
:102B80001C2040201C003C4030403C0044281028C1
:102B900044000448300804004464544C440008369F
:102BA0004141000000007F00000000414136080064
:102BB0000402020201007F4141417F0040A0C8A6FB
:0C2BC000A22FF800278109AC00AF000034
:102BCC00007A030A00000000000000000102030468
:042BDC0006070809D7
:0400000508000000EF
:00000001FF
